:020000040800F2
:10000000001E0020E1010008030F0008790E00081F
:10001000010F00089D020008B11100080000000057
:10002000000000000000000000000000490100087E
:100030009F020008000000008D010008550F000815
:10004000FB010008FB010008FB010008FB010008A0
:10005000FB010008FB010008FB010008FB01000890
:10006000FB010008FB010008FB010008FB01000880
:10007000FB010008FB010008FB010008FB01000870
:10008000FB010008FB010008FB010008FB01000860
:10009000FB010008FB010008FB010008FB01000850
:1000A000FB010008FB010008FB010008FB01000840
:1000B000FB010008FB010008FB010008FB01000830
:1000C000FB010008FB010008FB010008FB01000820
:1000D000FB010008FB010008FB010008FB01000810
:1000E000FB010008FB010008FB010008FB01000800
:1000F000FB010008FB010008FB010008FB010008F0
:10010000FB010008FB010008FB010008FB010008DF
:10011000FB010008FB010008E10F0008FB010008DB
:10012000FB010008FB010008FB010008FB010008BF
:10013000DFF810D000F0A0F8004800478113000855
:10014000AFF30080001E0020224B19680868B0E859
:10015000F00F80F30988BFF36F8F4FF0000080F33A
:1001600011884EF00D0E7047000000000648006830
:10017000006880F3088862B661B6BFF34F8FBFF3A3
:100180006F8F00DF00BF00BF08ED00E0EFF30980D4
:10019000BFF36F8F0F4B1A6820E9F00F106008B59E
:1001A0004FF0500080F31188BFF34F8FBFF36F8F74
:1001B00001F0D0FF4FF0000080F31188BDE8084047
:1001C00019680868B0E8F00F80F30988BFF36F8FF3
:1001D000704700BF1C000020EFF30580704700004F
:1001E0000648804706480047FEE7FEE7FEE7FEE7D1
:1001F000FEE7FEE7FEE7FEE7FEE7FEE7DF0F0008AB
:100200003101000840EA01039B0703D009E008C957
:10021000121F08C0042AFAD203E011F8013B00F8CB
:10022000013B521EF9D27047D2B201E000F8012B17
:10023000491EFBD270470022F6E710B513460A4666
:1002400004461946FFF7F0FF204610BD30B50B46B7
:10025000014600202022012409E021FA02F59D42F6
:1002600005D303FA02F5491B04FA02F52844151ECA
:10027000A2F10102F1DC30BD064C074D06E0E0685A
:1002800040F0010394E8070098471034AC42F6D3DD
:10029000FFF752FF902B0008B02B0008FEE77047D5
:1002A00072B6FEE72DE9F84FDFF8C8910024A9F1F6
:1002B000040B23460F2709F1040AABF1040ED1E029
:1002C0000125A54006EA0502AA4276D1DFF8A8C1B9
:1002D0004E68A6EB0C0866452BD00DDC032E34D0FF
:1002E00005DC36B3012E19D0022E2FD11BE0112EC2
:1002F00016D0122E2AD119E0B8F5881F19D006DCC5
:10030000B8F5803F15D0B8F5801F1FD111E0B8F5C2
:10031000001F0ED0B8F5041F18D10AE0CB6815E015
:10032000CB681B1D12E0CB6808330FE0CB680C33A1
:100330000CE08B682BB1012B4FF0080303D0456113
:1003400004E0042302E0056100E00023FF2A01D855
:10035000064601E000F104064FEA840501D9A5F143
:100360002005D6F8008007FA05FC28EA0C0803FAF5
:1003700005F548EA0508C6F800804D68ED0070D51F
:100380003E4DAE6946F00106AE61AD6924F003064C
:1003900005F0010500953A4D06EB050CDCF8085018
:1003A000A607360F07FA06F825EA0805DFF8D48015
:1003B000404503D14FF0000825E052E0DFF8C88047
:1003C000404502D14FF001081DE0DFF8C0804045F4
:1003D00002D14FF0020816E0DFF8B480404502D1A8
:1003E0004FF003080FE0DFF8AC80404502D14FF03A
:1003F000040808E0DFF8A080404502D14FF005086E
:1004000001E04FF0060808FA06F848EA0508CCF8BB
:1004100008804D68D9F80060ED024D4601D51643BD
:1004200000E096432E604D68DAF80060AD02554654
:1004300001D5164300E096432E604D68DBF800605E
:10044000AD035D4601D5164300E096432E604D682E
:10045000DEF80060ED03754601D5164300E09643D3
:100460002E60641C0A681646E2407FF429AFBDE89E
:10047000F88F000008040140000011100010024035
:100480000000014000080140000C01400010014044
:100490000014014000180140001C01400148806820
:1004A000704700000C000020024881680278114467
:1004B000816070470C000020074810B5016841F0CA
:1004C00010010160032000F0A7F80F2000F006F8EB
:1004D00000F050F8002010BD0020024030B5054665
:1004E0001F4887B0C16941F01001C161C06906A908
:1004F00000F01000009001A800F036F90498B0B1A7
:1005000000F052F940001749174AB0FBF1F11748C3
:10051000491E0260416040F2E7320021C0E9032138
:100520008160816100F018FB040003D015E000F049
:100530003BF9E8E70D4800F03DFB04000DD1362003
:1005400000F03CF8102D07D200222946362000F09A
:1005500043F80748056000E0012407B0204630BD9D
:100560000010024040420F0000100040E000002058
:10057000100000200F4808B5816941F00101816138
:10058000816901F001010091C16941F08051C161AF
:10059000C069002200F0805000900F21901E00F0F2
:1005A0001BF80548416821F0E06141F000714160AD
:1005B00008BD00000010024000000140002809DBD7
:1005C00000F01F02012191404009800000F1E0206D
:1005D000C0F8001170470000F0B40E4B1B680C46C9
:1005E000C3F30223C3F10705042D00D90425191D07
:1005F000072901D2002300E0DB1E012606FA05F1DF
:10060000491E214099409E40761E16403143F0BC61
:1006100000F0E0BD0CED00E0064900F007020868BC
:100620004FF6FF03184040EA0220034A10430860D7
:10063000704700000CED00E00000FA052DE9F047DE
:100640000F46050061D0434E306800F00700B84205
:1006500009D2306820F0070038433060306800F07D
:100660000700B84251D128683B4C810712D540079A
:1006700003D5606840F4E06060602878000703D527
:10068000606840F4605060606068A96820F0F00025
:10069000084360602878C00728D06868012810D017
:1006A0002168022810D0890700292EDA616821F01C
:1006B000030101436160FFF7F1FE804641F2883992
:1006C0000DE021688903EFE78901EDE7FFF7E6FE1A
:1006D000A0EB0801494502D90320BDE8F087606816
:1006E000696800F00C00B0EB810FEFD1306800F0CA
:1006F0000700B8420BD9306820F00700384330605B
:10070000306800F00700B84201D00120E5E7287802
:10071000400705D56068E96820F4E0600843606040
:100720002878000706D56068296920F4605040EAFF
:10073000C100606000F058F86168084AC1F3031115
:10074000515CC8400649086006480068FFF7C6FECD
:100750000020C2E700200240001002406A2B00087F
:1007600018000020100000200F2202600C4A53687D
:1007700003F003034360536803F0F003836053689E
:1007800003F4E063C36052684FF4E06303EAD2020B
:1007900002610448006800F007000860704700002C
:1007A00000100240002002400448054900684968E2
:1007B000044AC1F30221515CC84070471800002070
:1007C000001002407A2B0008044805490068496877
:1007D000044AC1F3C221515CC84070471800002090
:1007E000001002407A2B00080E4A51680E4801F0B2
:1007F0000C03042B11D0082B0FD10C48C1F38343F9
:10080000C903C05C0AD55168084AC1F34041921E31
:10081000515C054A5043B0FBF1F07047044948432E
:10082000704700000010024000127A005A2B0008A6
:1008300000093D002DE9F84F040070D02078C04D2C
:10084000C00749D06868C0F38100012807D06868F4
:10085000C0F38100022809D16868C00306D5286862
:10086000800339D560680028E7D035E06068B0F5CE
:10087000803F0BD010B1B0F5A02F11D0286820F424
:1008800080302860286820F4802002E0286840F446
:1008900080302860606890B1FFF700FE06460AE0ED
:1008A000286840F480202860F0E700BFFFF7F6FDDD
:1008B000801B642873D828688003F7D50CE0FFF705
:1008C000EDFD064605E000BFFFF7E8FD801B64284C
:1008D000F0D828688003F7D420789A4E80074FF02C
:1008E00001094FF0000839D5686810F00C0F07D0E7
:1008F0006868C0F38100022809D16868C00306D483
:100900002868800714D52069012808D110E02069E3
:10091000B0B1C6F80090FFF7C1FD074605E00AE157
:10092000FFF7BCFDC01B0228C4D828688007F7D594
:100930002868616920F0F80040EAC10028600DE0F5
:10094000C6F80080FFF7AAFD074604E0FFF7A6FD02
:10095000C01B022823D828688007F7D42078000716
:100960002CD57948A169D9B1C0F80090FFF796FD60
:10097000074604E0FFF792FDC01B02280FD8686A03
:100980008007F7D571484FF4FA510068B0FBF1F0D9
:10099000009000BF0098411E0091FAD20EE080E066
:1009A000C0F80080FFF77AFD074604E0FFF776FD08
:1009B000C01B022875D8686A8007F7D420784007E2
:1009C00060D5E8690027C00008D4E86940F080508D
:1009D000E861E869012700F0805000905C480168F8
:1009E000C90513D40168834641F480710160FFF7A3
:1009F00055FD824606E000BFFFF750FDA0EB0A0060
:100A000064284ED8DBF80000C005F5D5E068012861
:100A10000AD008B1052813D0286A20F00100286206
:100A2000286A20F0040002E0286A40F001002862F1
:100A3000E06841F2883B98B1FFF730FD82460BE059
:100A4000286A40F004002862EEE700BFFFF726FDA9
:100A5000A0EB0A0159455AD8286A8007F6D50CE060
:100A6000FFF71CFD824605E0FFF718FDA0EB0A0129
:100A700059454CD8286A8007F6D41FB1E86920F0A0
:100A80008050E861E06988B36968C1F38101022997
:100A900044D00228C6F8608004D0FFF7FFFC04466B
:100AA00038E034E0FFF7FAFC074604E0FFF7F6FC15
:100AB000C01B02282BD828688001F7D4206AB0F523
:100AC000803F05D16868A16820F400300843686061
:100AD000D4E908010843696821F474110843686087
:100AE000C6F86090FFF7DAFC044606E025E000BF98
:100AF000FFF7D4FC001B022809D828688001F7D52D
:100B00001BE000BFFFF7CAFC001B022802D903202C
:100B1000BDE8F88F28688001F4D40EE00128F7D0F2
:100B20006868226A00F48031914204D1616A00F45D
:100B30007010884201D00120EAE70020E8E70000B9
:100B4000001002400000424280044242180000208F
:100B5000007000407047704710B5040003D094F84F
:100B60003D0010B107E0012010BD002084F83C00DA
:100B7000204600F01EF8022084F83D00211D206868
:100B800000F034FA012084F8460084F83E0084F82E
:100B90003F0084F8400084F8410084F8420084F863
:100BA000430084F8440084F8450084F83D000020A8
:100BB00010BD704790F83D10012901D00120704709
:100BC000022180F83D100168CA6842F00102CA6043
:100BD00000680E4988420ED00D4988420BD0B0F112
:100BE000804F08D00B49884205D00B49884202D07B
:100BF0000A49884204D1816801F00701062903D01F
:100C0000016841F00101016000207047002C0140A3
:100C1000003401400004004000080040000C004087
:100C2000704770B50446006801694FF00005C9437C
:100C3000890715D4C168C943890711D4E91E016128
:100C400001202077206880698007204602D0FFF7C6
:100C5000E7FF04E000F098F8204600F096F82577CA
:100C600020680169C943490717D4C168C9434907C6
:100C700013D46FF00401016102202077206880699D
:100C800010F4407F204602D0FFF7CAFF04E000F0D6
:100C90007BF8204600F079F8257720680169C94380
:100CA000090716D4C168C943090712D46FF00801B7
:100CB0000161042020772068C0698007204602D0A7
:100CC000FFF7AEFF04E000F05FF8204600F05DF8AB
:100CD000257720680169C943C90617D4C168C9438B
:100CE000C90613D46FF01001016108202077206835
:100CF000C06910F4407F204602D0FFF791FF04E066
:100D000000F042F8204600F040F82577206801699D
:100D1000C943C90708D1C168C943C90704D1891E9D
:100D20000161204600F032F820680169C9430906D4
:100D300009D4C168C943090605D46FF08001016177
:100D40002046FFF707FF20680169C943490609D417
:100D5000C168C943490605D46FF0400101612046CE
:100D600000F01EF820680169C94389060BD4C168E8
:100D7000C943890607D46FF0200101612046BDE810
:100D80007040FFF7E8BE70BD7047704700680349C8
:100D9000884201D1FFF788BB704700000010004077
:100DA000704770B5040004D094F84100002510B1DC
:100DB00006E0012070BD84F84050204600F024F881
:100DC000242084F841002068C16821F40051C160EA
:100DD000204600F091F92068016921F490410161F9
:100DE0002068416921F02A0141612068C16841F40D
:100DF0000051C1606564202084F8410084F84200FD
:100E00006563002070BD000030B585B000240094FB
:100E100001940294039400681449884224D1144830
:100E2000816941F480418161816901F480410491CB
:100E3000816941F00401816180690E4D00F0040078
:100E400004904FF400700090022001900320039062
:100E500069462846FFF726FA2815CDE900046946B9
:100E600028460294FFF71EFA05B030BD0038014055
:100E70000010024000080140FEE7000010B5044ADF
:100E80000021044800F0C8FA0349886010BD000042
:100E9000342B0008050F000800000020094808B5A1
:100EA000816941F010018161816901F010010091B7
:100EB000816941F004018161806900F004000090C3
:100EC00008BD0000001002400C4810B50A4901603E
:100ED0004FF4E1314160002181600C22C160C0E922
:100EE00004128161C161FFF75CFF002803D0BDE8F7
:100EF0001040FFF7D5B910BD003801409800002020
:100F0000FEE7FEE71CB50C481824CDE9004000239D
:100F100080220AA10B4801F0FFFB07480023001DB7
:100F2000CDE90040802208A1094801F0F5FB00202E
:100F300001F03AF8FEE70000000000205441534B56
:100F400031000000791000085441534B320000007A
:100F5000BD10000810B5502080F31188BFF34F8FEB
:100F6000BFF36F8F01F044FC18B104494FF080507B
:100F70000860002080F3118810BD000004ED00E03F
:100F800030B58FB028216846FFF755F914210AA81B
:100F9000FFF751F901210804CDE900100024029463
:100FA00002250491CDE907504FF4E01009906846FE
:100FB000FFF740FC08B172B6FEE70F20CDE90A0545
:100FC0004FF48060CDE90C4002210AA80E94FFF78F
:100FD00035FB002801D072B6FEE70FB030BD704778
:100FE0000148FFF71EBE0000E0000020F0B50268D7
:100FF0001C4B1D4D1D4E1E4F1E4C4FF0804C9842F9
:1010000009D0A04207D0604505D0A84203D0B04225
:1010100001D0B84204D122F0700E4A6842EA0E02B2
:10102000984209D0A04207D0604505D0A84203D01D
:10103000B04201D0B84203D122F44075CA682A43B5
:101040004D6922F080022A4302608A68C2620A68FF
:101050008262984201D0A04201D109690163012155
:101060004161F0BD002C0140000400400008004038
:10107000000C00400034014000244FF47A7500E079
:10108000002400F097FE641CE1B20C4605A000F0BD
:1010900091F800F0AFFE284600F060FFFF2CF0D37F
:1010A000EEE700003232393036343034392C6E7588
:1010B0006D203D2025640D0A0000000000244FF43F
:1010C0007A7500BF00F076FE07A000F073F800F01C
:1010D00091FE284600F042FF641CE4B2032CF1D3D9
:1010E000002000F061FFEDE7323032352D30342D35
:1010F00031360D0A0000000070B504460068016931
:10110000E26821F44051114301612169A06808435C
:10111000616908432168CA6841F20C639A4302433B
:10112000CA6020684169A26921F44071114341619C
:101130001E492068884202D1FFF746FB01E0FFF715
:1011400033FB00EBC00101EB0012606864218000FA
:10115000B2FBF0F3B3FBF1F36FF018067343B2FB8D
:10116000F0F5B2FBF0F605EB8305322303EB051532
:10117000B5FBF1F5B6FBF1F605F0F00505EB06154C
:10118000B2FBF0F6B2FBF0F0B0FBF1F06FF018023A
:10119000504306EB800003EB0010B0FBF1F0216838
:1011A00000F00F002844886070BD00000038014046
:1011B000FEE700000FB4054B10B503A9044A0298DE
:1011C00000F028F810BC5DF814FB0000691300085B
:1011D000940000200907090E002804DB00F1E0203C
:1011E00080F80014704700F00F0000F1E02080F854
:1011F000141D704702E008C8121F08C1002AFAD166
:1012000070477047002001E001C1121F002AFBD186
:10121000704700002DE9FF4F89B09B46044600252A
:1012200006E025280BD05A460B999047641C6D1C8C
:1012300020780028F5D10DB02846BDE8F08F0027B2
:10124000B8460122474900E0074314F8013F203B1C
:1012500002FA03F00842F7D120782E2819D114F8A9
:10126000010F47F004072A280ED06FF02F022078D4
:10127000A0F1300109290CD808EB880102EB4101EB
:1012800000EB0108641CF2E70A98641C50F8048B18
:101290000A9020780028CED0642808D0692806D08B
:1012A00075281ED05A460B9990476D1C58E00A9934
:1012B0004FF00A0901C90A91002802DA40422D21A3
:1012C00002E0390504D52B218DF82010012103E01F
:1012D000F90704D02021F7E78A4608AE0DE0002187
:1012E000FAE70A994FF00A0901C90A91F7E7494656
:1012F000FEF7ACFF303106F8011D0028F7D1ADEB49
:10130000060000F12009780701D44FF00108C84514
:1013100002DDA8EB090000E000208046002706E07F
:1013200008A85A46C05D0B9990476D1C7F1C574515
:10133000F6DB04E030205A460B9990476D1CB8F15B
:101340000001A8F10108F5DC05E016F8010B5A468A
:101350000B9990476D1CB9F10001A9F10109F4DC6A
:10136000641C65E70928010004490A685206FCD597
:10137000024AC1B2121D11607047000000380140DE
:10138000FFF79AF8FFF7FCFDFFF788FDFFF79CFDDC
:1013900000F006F8FFF772FD00F01EF8FEE700000F
:1013A000EFF3058058B9EFF3108040B90949086898
:1013B000022801D030B109E0EFF3118030B16FF0B5
:1013C0000500704701200860002070474FF0FF3093
:1013D000704700006C00002010B5EFF3058060B985
:1013E000EFF3108048B90B490868022802D00128A1
:1013F00006D00BE0EFF3118040B16FF0050010BD97
:101400000220086000F05AFE002010BD4FF0FF30AF
:1014100010BD00006C000020F0B585B04FEA01035C
:101420004FF00004EFF305810394A1BBEFF31081AB
:1014300089BB21490968022902D1EFF3118151BB0F
:1014400048B3802618218DF8104004AD42B31768C8
:1014500007B13D4697691FB139467F1E382F02D22A
:101460001779FF0702D0002005B0F0BD576907B11A
:10147000BE08D2F808C0BCF1000F0DD0D4685C2CB7
:1014800018D312693AB137B18DE8061032462946B1
:1014900001F06FF903900DE0D7685FB912694AB99E
:1014A00003AACDE90012B2B2294601F035F90128AC
:1014B00000D003940398D7E76C0000202DE9F04199
:1014C000134C0F46054666692068001D00F016FCA7
:1014D000681C07D137B12168BDE8F0410D48091DEE
:1014E00000F05CBC20683544B5424560216805D2F7
:1014F000A068BDE8F041091D00F038BC6068091D16
:1015000000F034FC206B854200D22563BDE8F081F9
:101510001C000020180600202DE9F041054600F0CF
:1015200049FC2D4C2069401C206120682B4F10B1D4
:10153000E06930B32BE025602069012827D100261F
:1015400006EB860007EB800000F002FC761C382ECC
:10155000F6D3234800F0FCFB2148143000F0F8FBE0
:101560001F48283000F0F4FB1D483C3000F0F0FB31
:101570001B48503000F0ECFB194860601430A0604C
:1015800005E02068E96AC06A884200D82560E06A00
:10159000401CE0626864E86AA169884200D9A061E1
:1015A00000EB800007EB8000291D00F0F7FB00F046
:1015B00021FCE06900280CD02068E96AC06A8842F2
:1015C00007D208494FF080500860BFF34F8FBFF338
:1015D0006F8FBDE8F08100001C0000206801002032
:1015E000C805002004ED00E038B500F0E3FB104C26
:1015F000A068C8B90F4800F0ABFB0E48143000F0EB
:10160000A7FB0C482060143060600A4B0020283390
:10161000009003F1500210210A2000F021FEA0608A
:1016200010B105A100F064FCBDE8384000F0E2BB59
:10163000580000202C060020546D7251000000005C
:1016400030B4026C0B46002A0BD0C1681144C16053
:101650004468A14201D30168C16030BC1846FEF75E
:10166000D1BD30BC70472DE9F041856B174604466B
:101670000026026C82B1C7B1E068FEF7C3FDE168E5
:10168000206C091AE1602268914202D26168081A4E
:10169000E060022F16D017E02068A8B9606801F05A
:1016A0000BF90646002060600EE0A068FEF7AAFD78
:1016B000216CA0680844A0606168884204D3206857
:1016C000A06001E005B16D1E6D1CA5633046BDE84C
:1016D000F08110B5044690F8590058B101280CD09B
:1016E00002280FD0502080F31188BFF34F8FBFF333
:1016F0006F8FFEE7206B00F091FB2046BDE81040A5
:1017000000F08CBB10BD000010484FF44061420750
:1017100006D0C01D0D4920F00700411AC1F54061F7
:101720000B4A00230144C2E900030839103A21F0B2
:10173000070111604B600B600B1AC0E90013936046
:101740004FF000405360D06070470000FC0D002057
:1017500080000020144E154CA6F29C474FF0805894
:10176000DFF84C9012E000BF00F024FBF068C56881
:10177000281D00F0C3FA2069401E2061E068401E69
:10178000E06000F037FB2846FFF7A3FFE068002881
:10179000EAD138680128F9D9C9F80080BFF34F8F22
:1017A000BFF36F8FF2E70000040600201C0000204A
:1017B00004ED00E070B51D46049C51B1C4F8002052
:1017C000C4E90F010121204600F07EFD84F84C5051
:1017D00070BD2460F4E72DE9F0470E46DDE9098489
:1017E0001746824691009946089DA522206BFEF778
:1017F0001BFD6FF00301206B01EB8701084420F013
:101800000707780707D0502080F31188BFF34F8F68
:10181000BFF36F8FFEE72218315C82F83410315C21
:1018200011B1401C1028F6D3002684F84360382DEF
:1018300000D33725E562C4E91356201D00F093FA62
:1018400004F1180000F08FFA2461C5F138006462D9
:10185000A061666584F858604A465146384600F0F3
:101860003BFA2060B8F1000F01D0C8F80040BDE895
:10187000F087000030B5114900E011460A68824245
:10188000FBD34B685C18844203D14068184448601D
:10189000084643681C18944209D1084C103C24683F
:1018A000A24209D052681A4442600A681268026073
:1018B000814200D0086030BD0460F9E7800000205C
:1018C00070B5002441600B4D0061914206D8D11AD9
:1018D0008269914206D2011D686807E09A4203D2EC
:1018E000994201D3012403E0011D286800F03EFA6B
:1018F000204670BD5800002010B5044600F05AFA8A
:10190000A06B28B15FF0000400F074FA204610BD0F
:101910000124F9E730B589B0304D55E0049800282E
:1019200006DADDE90601059A9047049800284BDBAA
:10193000069C606910B1201D00F0E0F902A800F0DB
:10194000B9F8024604980A283ED2DFE800F00505FF
:10195000053D263705053D260598A1690346014446
:101960002046FFF7ADFF00B3616A20468847E06973
:10197000012829D1002000900598A1690023421870
:101980001946204601F0A2F878B9502080F311885A
:10199000BFF34F8FBFF36F8FFEE70598A06128B1AB
:1019A000811813462046FFF78BFF0DE0502080F38F
:1019B0001188BFF34F8FBFF36F8FFEE794F82C00B1
:1019C00010B9204600F02AFA002204A9A86800F005
:1019D000CDFD0028A2D109B030BD00005800002084
:1019E0002DE9FC410F46054600F0ACFB01A800F0D4
:1019F00061F80446019818B100F0D6FFBDE8FC81FB
:101A0000224EAFB170680068A8B30027291B3A4680
:101A1000B06800F081FA00F0C7FF0028EED11C4941
:101A20004FF080500860BFF34F8FBFF36F8FE5E733
:101A3000A542EBD800F0B8FF30682746C068C468FC
:101A4000201D00F05BF9E069012810D1A0692B4648
:101A500041193A462046FFF733FF40B100200346C4
:101A6000014600902A46204601F030F820B1616A14
:101A700020468847C2E707E0502080F31188BFF373
:101A80004F8FBFF36F8FFEE70127BFE7580000209D
:101A900004ED00E006484168096829B14168C96859
:101AA000C9684968016370474FF0FF31FAE70000E9
:101AB0001C00002070B5054600F094FE064E04465A
:101AC0003069844203D200F009F8012000E00020D0
:101AD00028602046346170BD58000020F8B5194DCB
:101AE0001FE0C068C4680668201D00F007F9616A3D
:101AF00020468847E069012813D1A0693044B042EC
:101B000006D924616060211D286800F02FF908E0E3
:101B100000200346014600903246204600F0D6FFE2
:101B200038B1286801680029DBD16968C5E900106F
:101B3000F8BD502080F31188BFF34F8FBFF36F8F34
:101B4000FEE700005800002008484068401C4FF0A5
:101B5000500080F3118804D0BFF34F8FBFF36F8F15
:101B6000FEE7BFF34F8FBFF36F8FFEE788000020C3
:101B7000074C2068016841B1C0680021D0F800001E
:101B8000FFF72EFFFFF7C6FEF3E701210020F7E77E
:101B9000580000202DE9F041044600F00BF994F9BB
:101BA000455004F1240609E0606A48B1304600F06F
:101BB000C3FE08B100F048FA6D1E6DB2002DF3DCD3
:101BC0004FF0FF3684F8456000F014F900F0F2F8A9
:101BD00094F9445004F1100709E0206948B13846EF
:101BE00000F0AAFE08B100F02FFA6D1E6DB2002DB4
:101BF000F3DC84F84460BDE8F04100F0FBB800007D
:101C00002DE9F0410546002700F09CFA314E30687E
:101C100008B9FFF779FDF06805424BD1C5B3083527
:101C200068070ED005F00700C0F1080005446807FA
:101C300007D0502080F31188BFF34F8FBFF36F8F11
:101C4000FEE72DB37068854234D822481030014633
:101C50000C6801E020460C466168A94202D2216866
:101C60000029F7D131688C4224D0076821680160CF
:101C700060680837411B10290FD96019420708D046
:101C8000502080F31188BFF34F8FBFF36F8FFEE7B3
:101C900010E041606560FFF7EDFD61687068401A13
:101CA0007060B268904200D2B060F06801430020DA
:101CB000C4E9000100F078FE780707D0502080F3D7
:101CC0001188BFF34F8FBFF36F8FFEE73846BDE833
:101CD000F08100007000002010B5031F4FF08074E9
:101CE0001C601B1F21F001011960191F024B0B60C2
:101CF000143940380A6010BD491B0008D0E9013290
:101D000001699A60D0E901235A604A68824201D190
:101D100082684A60002202610868401E0860086804
:101D200070470000034B036003F15C0008608020F3
:101D30001060704744070020044B036003F15C000F
:101D400008604FF48070106070470000A009002008
:101D500000F108014FF0FF32C0E90112C1600161DA
:101D600000210160704700210161704730B50B68A8
:101D70005A1C02D000F1080202E0026904E0224687
:101D8000546825689D42FAD953684B6099608A600F
:101D9000516008610168491C016030BD42684A60B9
:101DA00093688B6093685960916008610168491C71
:101DB00001607047502080F31188BFF34F8FBFF34D
:101DC0006F8F0A494868401C486001280CD10848B8
:101DD000006810F0FF0F07D0502080F31188BFF388
:101DE0004F8FBFF36F8FFEE7704700008800002021
:101DF00004ED00E00849486828B1401E486001D160
:101E000080F311887047502080F31188BFF34F8F03
:101E1000BFF36F8FFEE700008800002070B5002838
:101E200027D0144DA0F108046168E868014207D189
:101E3000502080F31188BFF34F8FBFF36F8FFEE701
:101E400022683AB1502080F31188BFF34F8FBFF35F
:101E50006F8FFEE78143616000F074F96068696824
:101E6000084468602046FFF705FDBDE8704000F0BB
:101E70009BBD70BD700000204FF0E020002101618B
:101E8000816105494FF47A720968B1FBF2F1491E8C
:101E900041610721016170471800002010B5FEF76D
:101EA0009BF9114910280ED300F1E02090F8F003BF
:101EB0000A78904207D2502080F31188BFF34F8FE9
:101EC000BFF36F8FFEE709480068896800F4E0609F
:101ED000884207D9502080F31188BFF34F8FBFF39A
:101EE0006F8FFEE710BD0000880000200CED00E0C1
:101EF00010B5084B002200BF53F832401CB1521CF1
:101F0000082AF9D310BD43F8321003EBC201486030
:101F100010BD00002801002070B515460E4604468D
:101F2000FFF748FF94F944100020491C01D184F8C0
:101F3000440094F94510491C01D184F84500FFF78D
:101F400059FFA06B28B92A46314604F1240000F05D
:101F500099F82046BDE87040FFF71CBE10B502009E
:101F600014D00F48806B38B1502080F31188BFF334
:101F70004F8FBFF36F8FFEE700F0E4F800211046AB
:101F8000FFF79CFA00F010FD002807D105494FF03B
:101F900080500860BFF34F8FBFF36F8F10BD0000FC
:101FA0001C00002004ED00E070B50546FFF702FFBD
:101FB0001E4C05B92568281DFFF7A0FEA86A18B1B8
:101FC00005F11800FFF79AFEE06A401CE062206805
:101FD000854207D1291D1648FFF7E0FEE068401C46
:101FE000E06007E02069401E20612846FFF771FB92
:101FF000FFF750FDFFF7FEFEE069002814D02068CF
:10200000854211D1A06B38B1502080F31188BFF305
:102010004F8FBFF36F8FFEE706494FF08050086087
:10202000BFF34F8FBFF36F8F70BD00001C00002007
:102030000406002004ED00E002498A6A0260496952
:10204000416070471C000020014901204862704730
:102050001C00002010B50C4650B109490968183120
:10206000FFF784FE2046BDE810400121FFF726BAA5
:10207000502080F31188BFF34F8FBFF36F8FFEE7BF
:102080001C00002070B514460D4668B10A49096865
:102090001831FFF783FE0CB14FF0FF35214628467B
:1020A000BDE87040FFF70ABA502080F31188BFF3F3
:1020B0004F8FBFF36F8FFEE71C00002030B587B055
:1020C0000024039405AA04A903A80494FFF72AFE98
:1020D000DDE903010094CDE90110002315A11748A3
:1020E000059A00F046FB164D002868631FD000F0EB
:1020F000BDFC012809D0401C19D1502080F3118863
:10210000BFF34F8FBFF36F8FFEE7502080F311882E
:10211000BFF34F8FBFF36F8F4FF0FF302863012065
:10212000E8616C6107B0BDE8304000F045B807B029
:1021300030BD000049444C45000000005517000820
:102140001C0000200248816B491C8163704700001D
:102150001C000020164810B5816B11B101214162AD
:1021600010BD002141628169124A01E0B9B1491EE6
:1021700001EB810352F82330002BF7D001EB8103F0
:1021800002EB830202F1080453685B685360A342C8
:1021900001D15B685360DA680260816110BD502034
:1021A00080F31188BFF34F8FBFF36F8FFEE70000FE
:1021B0001C000020680100201CB526490878019009
:1021C000FF20087008788DF800009DF800009DF849
:1021D000002000F0F000904207D0502080F31188DA
:1021E000BFF34F8FBFF36F8FFEE79DF800001A4BD0
:1021F00000F0500018700720986005E09DF800205E
:1022000052008DF80020401E9DF800201206F5D4E3
:102210009860032807D0502080F31188BFF34F8FB8
:10222000BFF36F8FFEE74FF440709860019808701D
:102230000A48016841F470010160016841F0704191
:102240000160FFF719FE00205860FDF78FFF0020A6
:102250001CBD000000E400E08800002020ED00E04C
:1022600038B5049D18B153B1CAB181B120E05020F6
:1022700080F31188BFF34F8FBFF36F8FFEE75020BD
:1022800080F31188BFF34F8FBFF36F8FFEE75020AD
:1022900080F31188BFF34F8FBFF36F8FFEE739B123
:1022A000502080F31188BFF34F8FBFF36F8FFEE78D
:1022B00050241C46012384F846302B460094FFF737
:1022C00079FA204638BD000070B50D46040025D0CF
:1022D000FFF770FDD4E90F20216802FB0011616057
:1022E0000021A1632168A1600A46D4E90F01401EC4
:1022F00000FB0121E16021464FF0FF3001F8440F5F
:10230000487004F110008DB1FFF722FD04F12400A4
:10231000FFF71EFDFFF76EFD012070BD502080F31A
:102320001188BFF34F8FBFF36F8FFEE7216900293C
:10233000F0D000F001FB0028ECD004494FF08050B1
:102340000860BFF34F8FBFF36F8FE3E704ED00E04A
:102350002DE9FF4782B01D468A464FF00008040071
:1023600003D0BAF1000F08D011E0502080F311889B
:10237000BFF34F8FBFF36F8FFEE7206C38B1502053
:1023800080F31188BFF34F8FBFF36F8FFEE7022DED
:102390000AD1E06B012807D0502080F31188BFF3E9
:1023A0004F8FBFF36F8FFEE700F00EFA3F4F4FF0F5
:1023B00000094FF0805648B9049838B1502080F396
:1023C0001188BFF34F8FBFF36F8FFEE7FFF7F2FC6B
:1023D000A06BE16B884207D3022D05D00498D0B1E1
:1023E000B8F1000F1AD01EE02A4651462046FFF7EA
:1023F0003AF9616A19B104F1240000F09DFA20B1A4
:102400003E60BFF34F8FBFF36F8FFFF7F3FC0120E8
:1024100006B0BDE8F087FFF7EDFC22E06846FFF765
:102420000BFE4FF00108FFF7E5FCFFF78BFEFFF70F
:10243000C1FC94F94400401C01D184F8449094F903
:102440004500401C01D184F84590FFF7D3FC04A956
:10245000684600F027F930B12046FFF79BFB00F0FB
:10246000A3FA0020D4E7FFF7A5FCA06BE16B88423C
:1024700013D1FFF7BFFC04F110000499FFF7EAFD48
:102480002046FFF787FB00F08FFA00289ED13E60C0
:10249000BFF34F8FBFF36F8F98E7FFF7ABFC20467A
:1024A000FFF778FB00F080FA90E7000004ED00E011
:1024B0002DE9F0471F4690468946040003D0B9F144
:1024C000000F08D011E0502080F31188BFF34F8F28
:1024D000BFF36F8FFEE7206C38B1502080F3118876
:1024E000BFF34F8FBFF36F8FFEE7022F0AD1E06B70
:1024F000012807D0502080F31188BFF34F8FBFF31E
:102500006F8FFEE7FFF7CAFC5020EFF3118680F3D0
:102510001188BFF34F8FBFF36F8FA06BE16B8842C1
:1025200006D3022F04D0002086F31188BDE8F0877F
:1025300094F945503A4649462046FFF794F8681CFE
:1025400004D06D1C84F845500120EDE7606A002836
:10255000FAD004F1240000F0EFF90028F4D0B8F12B
:10256000000FF1D00121C8F80010EDE72DE9F74781
:10257000002683B08A46040003D0BAF1000F08D0C9
:1025800011E0502080F31188BFF34F8FBFF36F8F9E
:10259000FEE7206C38B1502080F31188BFF34F8FD5
:1025A000BFF36F8FFEE700F00FF9DFF8F4804FF014
:1025B00000094FF0805748B9059838B1502080F392
:1025C0001188BFF34F8FBFF36F8FFEE7FFF7F2FB6A
:1025D000A56BC5B151462046FFF732F86D1EA563C5
:1025E000206950B104F1100000F0A6F928B1C8F834
:1025F0000070BFF34F8FBFF36F8FFFF7FBFB01201E
:1026000006B0BDE8F087059808B11EB106E0FFF7F7
:10261000F1FB27E06846FFF70FFD0126FFF7EAFB15
:10262000FFF790FDFFF7C6FB94F94400401C01D171
:1026300084F8449094F94500401C01D184F84590F9
:10264000FFF7D8FB05A9684600F02CF800282046C3
:102650000AD0FFF79FFA00F0A7F92046FFF74CF9E0
:102660000028B3D00020CBE7FFF746F990B104F182
:1026700024000599FFF7EEFC2046FFF78BFA00F0E7
:1026800093F90028A2D1C8F80070BFF34F8FBFF3B1
:102690006F8F9BE72046FFF77DFA00F085F995E7FD
:1026A00004ED00E02DE9F0410C46050011D0C4B165
:1026B000FFF780FB174B5A696E682068911B471C17
:1026C00017D02F689B6A9F4219D0964217D80124D1
:1026D00010E0502080F31188BFF34F8FBFF36F8F4E
:1026E000FEE7502080F31188BFF34F8FBFF36F8F49
:1026F000FEE70024FFF77EFB2046BDE8F08188421C
:1027000005D9401A20602846FFF796FCF1E7002023
:102710002060DCE71C0000202DE9FF5F8346DDE937
:102720000E87994616468A469000FFF769FA05001B
:102730001CD05C20FFF764FA040014D0002025634D
:1027400084F85900CDE90240CDE900874B46324676
:1027500051465846FFF73FF82046FEF7DDFE0120C0
:1027600004B0BDE8F09F2846FFF758FB4FF0FF305C
:10277000F6E7F0B585B0DDE90B640A9DA6B1DCB1E2
:102780005C2700972663022684F85960002604AF70
:10279000CDE90246CDE90057FFF71DF82046FEF7C8
:1027A000BBFE049805B0F0BD502080F31188BFF344
:1027B0004F8FBFF36F8FFEE7502080F31188BFF378
:1027C0004F8FBFF36F8FFEE70548C16919B1806B6A
:1027D00018B10020704701207047022070470000A8
:1027E0001C00002001484069704700001C000020C8
:1027F0002DE9F0412E4C0027A06B40B1206A401C0F
:102800002062606A00B101273846BDE8F081666940
:10281000761C666113D16068006838B1502080F37F
:102820001188BFF34F8FBFF36F8FFEE76068A16819
:102830006160A060A06A401CA062FFF72BF9206BCA
:10284000DFF87080864209D36068006880B16068F4
:10285000C068C568686886420DD220632068C06A77
:1028600000EB800158F821000128CAD90127C8E7E8
:102870004FF0FF30F1E7281DFFF740FAA86A18B1C2
:1028800005F11800FFF73AFAE86AA169884200D911
:10289000A06100EB800108EB8100291DFFF77EFAA3
:1028A000E86A2168C96A8842CED30127CCE70000D4
:1028B0001C0000206801002070B504004FF00001EA
:1028C00033D01B4D2868844207D0502080F31188F4
:1028D000BFF34F8FBFF36F8FFEE7206D38B1401EFF
:1028E0002065E36CE26A9A421FD040B11DE050209F
:1028F00080F31188BFF34F8FBFF36F8FFEE7201D6A
:10290000FFF7FCF9E06CE062C0F13800A061E06A1A
:10291000A969884200D9A861064900EB800001EB53
:102920008000211DFFF73AFA0121084670BD000022
:102930001C0000206801002070B5C068C46854B154
:1029400004F118000646FFF7D9F9144DA86B50B1F1
:102950003146134815E0502080F31188BFF34F8FA4
:10296000BFF36F8FFEE7201DFFF7C8F9E06AA96982
:10297000884200D9A8610B4900EB800001EB800080
:10298000211DFFF70BFAE06A2968C96A884202D95B
:102990000120686270BD002070BD00001C00002096
:1029A000F0050020680100202DE9F0472C4D00249F
:1029B0002746A86B38B1FFF7FDF9A86B401EA86346
:1029C000A86B40B146E0502080F31188BFF34F8FD1
:1029D000BFF36F8FFEE72969224E0120D1B3A6F520
:1029E000916980463068E0B1F068C46804F118006D
:1029F000FFF784F9201DFFF781F9E06AA969884291
:102A000000D9A86100EB800109EB8100211DFFF7CF
:102A1000C5F9E06A2968C96A8842E3D3C5F8248009
:102A2000E0E70CB1FFF736F82C6A4CB14FEA080624
:102A3000FFF7DEFE00B16E62641EF9D1002028624D
:102A4000686A38B10849012738070860BFF34F8F1B
:102A5000BFF36F8FFFF7CEF93846BDE8F08700006F
:102A60001C000020F005002004ED00E010B586B049
:102A7000FEF7BAFD114CA068B8B100200390049095
:102A800005AA04A903A8FFF757F9DDE903210220ED
:102A90008DE8070000230AA10B48059AFFF769FE9D
:102AA000E06010B106B0012010BD502080F3118805
:102AB000BFF34F8FBFF36F8FFEE700005800002079
:102AC000546D722053766300711B00082DE9FF419D
:102AD0001E46134602000A9D4FF0000016D0144C0B
:102AE000A768002F0FD0CDE900130292062917DA4C
:102AF000FFF76AFE02284FF000030FD0002269465C
:102B0000A068FFF725FC04B0BDE8F081502080F3F9
:102B10001188BFF34F8FBFF36F8FFEE72A46EEE7B2
:102B20000023324669463846FFF7C2FCEBE7000057
:102B300058000020842B0008000000000000000066
:102B4000000000000000000000020000180000006B
:102B50000000000000000000010202030405060757
:102B600008090A0B0C0D0E0F1010000000000000E9
:102B7000000001020304060708090000000001022A
:102B80000304000064656661756C745461736B00C6
:102B9000B02B00080000002098000000F41100088D
:102BA000482C000898000020681D0000041200084E
:102BB0000000000000000000000000000100000014
:102BC000100000000000000000127A000000000069
:102BD00000000000000000000000000000000000F5
:102BE00000000000000000000000000000000000E5
:102BF00000000000000000000000000000000000D5
:102C000000000000000000000000000000000000C4
:102C100000000000000000000000000000000000B4
:102C200000000000000000000000000000000000A4
:102C3000000000000000000000000000AAAAAAAAEC
:082C400000000000000000008C
:0400000508000131BD
:00000001FF
