:020000040800F2
:10000000601E0020E1010008A3170008AB160008DD
:10001000A11700088D020008311E00080000000032
:10002000000000000000000000000000490100087E
:10003000C7020008000000008D0100082118000818
:10004000FB010008FB010008FB010008FB010008A0
:10005000FB010008FB010008FB010008FB01000890
:10006000FB010008FB010008FB010008FB01000880
:10007000FB010008FB010008FB01000891020008D9
:10008000FB010008FB010008FB010008FB01000860
:10009000FB010008FB010008FB010008FB01000850
:1000A000FB010008FB010008FB010008FB01000840
:1000B000FB010008FB010008FB010008FB01000830
:1000C000FB010008FB010008FB010008FB01000820
:1000D000FB010008091E0008FB010008FB010008E5
:1000E000FB010008FB010008FB010008FB01000800
:1000F000FB010008FB010008FB010008FB010008F0
:10010000FB010008FB010008FB010008FB010008DF
:10011000FB010008FB010008AD180008FB01000806
:10012000FB010008FB010008FB010008FB010008BF
:10013000DFF810D000F098F800480047BD1E000816
:10014000AFF30080601E0020224B19680868B0E8F9
:10015000F00F80F30988BFF36F8F4FF0000080F33A
:1001600011884EF00D0E7047000000000648006830
:10017000006880F3088862B661B6BFF34F8FBFF3A3
:100180006F8F00DF00BF00BF08ED00E0EFF30980D4
:10019000BFF36F8F0F4B1A6820E9F00F106008B59E
:1001A0004FF0500080F31188BFF34F8FBFF36F8F74
:1001B00002F0DEFD4FF0000080F31188BDE808403A
:1001C00019680868B0E8F00F80F30988BFF36F8FF3
:1001D000704700BF28000020EFF305807047000043
:1001E0000648804706480047FEE7FEE7FEE7FEE7D1
:1001F000FEE7FEE7FEE7FEE7FEE7FEE7AB180008D6
:100200003101000840EA01039B0703D009E008C957
:10021000121F08C0042AFAD203E011F8013B00F8CB
:10022000013B521EF9D27047D2B201E000F8012B17
:10023000491EFBD270470022F6E710B513460A4666
:1002400004461946FFF7F0FF204610BD10B5002206
:1002500000E0521C835C8C5CA34201D1002BF8D1DE
:10026000D8B2E1B2401A10BD064C074D06E0E06876
:1002700040F0010394E8070098471034AC42F6D3ED
:10028000FFF75AFFAC370008CC370008FEE7000044
:10029000014800F0D7B80000FC00002030B590F80D
:1002A00040500124AC40C56B6C60046863604368D7
:1002B000102B036803D099600068C26030BD9A605B
:1002C0000068C16030BD704772B6FEE710B590F8A7
:1002D00021100022022905D00421816380F820200A
:1002E000012010BD01680B6823F00E030B6001684C
:1002F0000B6823F001030B6090F84030C46B0121C0
:1003000001FA03F3636080F8211080F82020104682
:1003100010BD00002DE9F05F90F8211000240229A3
:1003200003D004218163012485E001680A6822F07A
:100330000E020A6001680A6822F001020A603F4E5C
:100340003E4FB215DFF8F4C0DFF8F090DFF8ECA014
:10035000DFF8E8B0DFF8E4E00168783F1301150248
:10036000ACF1640CA9F15009AAF13C0AABF1280BDD
:10037000AEF1140E4FF48018B14227D9B9420ED015
:10038000614512D049451DD0514518D0594518D066
:10039000714501D1424615E0294EB14201D10122F9
:1003A00010E0274E1436B14201D110220AE0244E4B
:1003B0002836B14206D0224A3C32914201D11A4637
:1003C00000E02A461E49091F0A602BE0B94213D0FB
:1003D000614517D0494522D051451DD059451DD002
:1003E000714501D142461AE0B14202D14FF080720C
:1003F00015E0134EB14201D1012210E0104E143627
:10040000B14201D110220AE00D4E2836B14206D089
:100410000B4A3C32914201D11A4600E02A46074974
:1004200080394A60012180F82110002180F82010D5
:10043000416B01B188472046BDE8F09F8000024033
:10044000080402402DE9F05FC16B0A6801680B687F
:10045000046C4FF0040808FA04F8844D844E854F6C
:10046000DFF814C2DFF81492DFF814A2DFF814B238
:10047000DFF814E218EA020F65D05FEA437862D52C
:100480000A68920603D40A6822F004020A60DFF8C0
:10049000F0814FF48062016808F11408130114021E
:1004A000414524D9A9420DD0B1420FD0B9421AD04A
:1004B000614515D0494515D0514501D1120312E0CF
:1004C000594501D104220EE0714501D140220AE0D4
:1004D0006D4D1435A94206D06B4A2832914201D1A4
:1004E0001A4600E022466749091F0A6029E0A9422E
:1004F00013D0B14215D0B94220D061451BD0494537
:100500001BD0514502D14FF4800217E0414502D182
:100510004FF0806212E0594501D104220EE071458E
:1005200001D140220AE0584D1435A94206D0564A5E
:100530002832914201D11A4600E022464B4908393F
:100540004A60C16A71E04FF0020808FA04F818EA3C
:10055000020F70D05FEA83786DD50A68920606D4E0
:100560000A6822F00A020A60012180F82110DFF8EF
:1005700010814FF40072016808F11408130114028D
:10058000414524D9A9420DD0B1420FD0B9421AD069
:10059000614515D0494515D0514501D1120312E0EE
:1005A000594501D102220EE0714501D120220AE015
:1005B000354D1435A94206D0334A2832914201D133
:1005C0001A4600E022462F49091F0A6029E0A94285
:1005D00013D0B14215D0B94220D061451BD0494556
:1005E0001BD0514502D14FF4001217E0414502D112
:1005F0004FF0007212E0594501D102220EE0714520
:1006000001D120220AE0204D1435A94206D01E4A0D
:100610002832914201D11A4600E022461349083996
:100620004A60002180F82010816A00291CD0BDE8B2
:10063000F05F0847FFE70825A540154214D01A07C8
:1006400012D50A6822F00E020A6090F84020C36BAF
:10065000012101FA02F25A60816380F82110002121
:1006600080F82010016BE0E7BDE8F09F0800024031
:100670001C0002403000024044000240580002408A
:100680006C000240080402401C04024030B560B116
:100690001A4B026814219A4209D2194B1344B3FB36
:1006A000F1F18900016417490AE0012030BD134BC4
:1006B0005B421344B3FBF1F1890001640F4908392F
:1006C000C163022180F82110136843F6F0718B4357
:1006D000F0E901142143D0E902452C432143046988
:1006E0002143446921438469214319431160002156
:1006F0004163012242770177084630BD0804024079
:10070000F8FFFDBF0000024070B5044690F82000DD
:10071000002501280CD0012084F8200094F82160E5
:100720000020012E06D084F820000225284670BD46
:10073000022070BD022684F82160A063206806684C
:1007400026F0010606602046FFF7A8FDE06A0028B3
:100750002068016802D041F00E0106E021F004019A
:1007600001602068016841F00A01016020680168A9
:1007700041F001010160D9E72DE9F84FDFF8C89198
:100780000024A9F1040B23460F2709F1040AABF159
:10079000040ED1E00125A54006EA0502AA4276D161
:1007A000DFF8A8C14E68A6EB0C0866452BD00DDC1F
:1007B000032E34D005DC36B3012E19D0022E2FD1F2
:1007C0001BE0112E16D0122E2AD119E0B8F5881F81
:1007D00019D006DCB8F5803F15D0B8F5801F1FD1C1
:1007E00011E0B8F5001F0ED0B8F5041F18D10AE0CB
:1007F000CB6815E0CB681B1D12E0CB6808330FE017
:10080000CB680C330CE08B682BB1012B4FF0080345
:1008100003D0456104E0042302E0056100E0002309
:10082000FF2A01D8064601E000F104064FEA8405DC
:1008300001D9A5F12005D6F8008007FA05FC28EAC1
:100840000C0803FA05F548EA0508C6F800804D686B
:10085000ED0070D53E4DAE6946F00106AE61AD6962
:1008600024F0030605F0010500953A4D06EB050C52
:10087000DCF80850A607360F07FA06F825EA08053F
:10088000DFF8D480404503D14FF0000825E052E066
:10089000DFF8C880404502D14FF001081DE0DFF8C5
:1008A000C080404502D14FF0020816E0DFF8B48066
:1008B000404502D14FF003080FE0DFF8AC8040451F
:1008C00002D14FF0040808E0DFF8A080404502D1D3
:1008D0004FF0050801E04FF0060808FA06F848EA6C
:1008E0000508CCF808804D68D9F80060ED024D4647
:1008F00001D5164300E096432E604D68DAF800609B
:10090000AD02554601D5164300E096432E604D6872
:10091000DBF80060AD035D4601D5164300E0964369
:100920002E604D68DEF80060ED03754601D5164374
:1009300000E096432E60641C0A681646E2407FF48D
:1009400029AFBDE8F88F0000080401400000111035
:10095000001002400000014000080140000C01406E
:10096000001001400014014000180140001C01402B
:10097000C26821EA02030A4043EA0241016170476A
:100980000AB1016170470904FBE700000148806873
:100990007047000018000020024881680278114466
:1009A0008160704718000020074810B5016841F0C9
:1009B00010010160032000F0A7F80F2000F006F8F6
:1009C00000F050F8002010BD0020024030B5054670
:1009D0001F4887B0C16941F01001C161C06906A913
:1009E00000F01000009001A800F036F90498B0B1B2
:1009F00000F052F940001749174AB0FBF1F11748CF
:100A0000491E0260416040F2E7320021C0E9032143
:100A10008160816100F018FB040003D015E000F054
:100A20003BF9E8E70D4800F03DFB04000DD136200E
:100A300000F03CF8102D07D200222946362000F0A5
:100A400043F80748056000E0012407B0204630BDA8
:100A50000010024040420F00001000404001002002
:100A60001C0000200F4808B5816941F00101816137
:100A7000816901F001010091C16941F08051C161BA
:100A8000C069002200F0805000900F21901E00F0FD
:100A90001BF80548416821F0E06141F000714160B8
:100AA00008BD00000010024000000140002809DBE2
:100AB00000F01F02012191404009800000F1E02078
:100AC000C0F8001170470000F0B40E4B1B680C46D4
:100AD000C3F30223C3F10705042D00D90425191D12
:100AE000072901D2002300E0DB1E012606FA05F1EA
:100AF000491E214099409E40761E16403143F0BC6D
:100B000001F0A0B90CED00E0064900F0070208680A
:100B10004FF6FF03184040EA0220034A10430860E2
:100B2000704700000CED00E00000FA052DE9F047E9
:100B30000F46050061D0434E306800F00700B84210
:100B400009D2306820F0070038433060306800F088
:100B50000700B84251D128683B4C810712D54007A5
:100B600003D5606840F4E06060602878000703D532
:100B7000606840F4605060606068A96820F0F00030
:100B8000084360602878C00728D06868012810D022
:100B90002168022810D0890700292EDA616821F027
:100BA000030101436160FFF7F1FE804641F288399D
:100BB0000DE021688903EFE78901EDE7FFF7E6FE25
:100BC000A0EB0801494502D90320BDE8F087606821
:100BD000696800F00C00B0EB810FEFD1306800F0D5
:100BE0000700B8420BD9306820F007003843306066
:100BF000306800F00700B84201D00120E5E728780E
:100C0000400705D56068E96820F4E060084360604B
:100C10002878000706D56068296920F4605040EA0A
:100C2000C100606000F058F86168084AC1F3031120
:100C3000515CC8400649086006480068FFF7C6FED8
:100C40000020C2E700200240001002408637000862
:100C5000240000201C0000200F2202600C4A536870
:100C600003F003034360536803F0F00383605368A9
:100C700003F4E063C36052684FF4E06303EAD20216
:100C800002610448006800F0070008607047000037
:100C900000100240002002400448054900684968ED
:100CA000044AC1F30221515CC8407047240000206F
:100CB000001002409637000804480549006849685A
:100CC000044AC1F3C221515CC8407047240000208F
:100CD00000100240963700080E4A51680E4801F095
:100CE0000C03042B11D0082B0FD10C48C1F3834304
:100CF000C903C05C0AD55168084AC1F34041921E3D
:100D0000515C054A5043B0FBF1F070470449484339
:100D1000704700000010024000127A007637000889
:100D200000093D002DE9F84F040070D02078C04D37
:100D3000C00749D06868C0F38100012807D06868FF
:100D4000C0F38100022809D16868C00306D528686D
:100D5000800339D560680028E7D035E06068B0F5D9
:100D6000803F0BD010B1B0F5A02F11D0286820F42F
:100D700080302860286820F4802002E0286840F451
:100D800080302860606890B1FFF700FE06460AE0F8
:100D9000286840F480202860F0E700BFFFF7F6FDE8
:100DA000801B642873D828688003F7D50CE0FFF710
:100DB000EDFD064605E000BFFFF7E8FD801B642857
:100DC000F0D828688003F7D420789A4E80074FF037
:100DD00001094FF0000839D5686810F00C0F07D0F2
:100DE0006868C0F38100022809D16868C00306D48E
:100DF0002868800714D52069012808D110E02069EF
:100E0000B0B1C6F80090FFF7C1FD074605E00AE162
:100E1000FFF7BCFDC01B0228C4D828688007F7D59F
:100E20002868616920F0F80040EAC10028600DE000
:100E3000C6F80080FFF7AAFD074604E0FFF7A6FD0D
:100E4000C01B022823D828688007F7D42078000721
:100E50002CD57948A169D9B1C0F80090FFF796FD6B
:100E6000074604E0FFF792FDC01B02280FD8686A0E
:100E70008007F7D571484FF4FA510068B0FBF1F0E4
:100E8000009000BF0098411E0091FAD20EE080E071
:100E9000C0F80080FFF77AFD074604E0FFF776FD13
:100EA000C01B022875D8686A8007F7D420784007ED
:100EB00060D5E8690027C00008D4E86940F0805098
:100EC000E861E869012700F0805000905C48016803
:100ED000C90513D40168834641F480710160FFF7AE
:100EE00055FD824606E000BFFFF750FDA0EB0A006B
:100EF00064284ED8DBF80000C005F5D5E06801286D
:100F00000AD008B1052813D0286A20F00100286211
:100F1000286A20F0040002E0286A40F001002862FC
:100F2000E06841F2883B98B1FFF730FD82460BE064
:100F3000286A40F004002862EEE700BFFFF726FDB4
:100F4000A0EB0A0159455AD8286A8007F6D50CE06B
:100F5000FFF71CFD824605E0FFF718FDA0EB0A0134
:100F600059454CD8286A8007F6D41FB1E86920F0AB
:100F70008050E861E06988B36968C1F381010229A2
:100F800044D00228C6F8608004D0FFF7FFFC044676
:100F900038E034E0FFF7FAFC074604E0FFF7F6FC20
:100FA000C01B02282BD828688001F7D4206AB0F52E
:100FB000803F05D16868A16820F40030084368606C
:100FC000D4E908010843696821F474110843686092
:100FD000C6F86090FFF7DAFC044606E025E000BFA3
:100FE000FFF7D4FC001B022809D828688001F7D538
:100FF0001BE000BFFFF7CAFC001B022802D9032038
:10100000BDE8F88F28688001F4D40EE00128F7D0FD
:101010006868226A00F48031914204D1616A00F468
:101020007010884201D00120EAE70020E8E70000C4
:10103000001002400000424280044242240000208E
:10104000007000407047704710B5040003D094F85A
:101050003D0010B107E0012010BD002084F83C00E5
:10106000204600F01EF8022084F83D00211D206873
:1010700000F022FC012084F8460084F83E0084F849
:101080003F0084F8400084F8410084F8420084F86E
:10109000430084F8440084F8450084F83D000020B3
:1010A00010BD704790F83D10012901D00120704714
:1010B000022180F83D100168CA6842F00102CA604E
:1010C00000680E4988420ED00D4988420BD0B0F11D
:1010D000804F08D00B49884205D00B49884202D086
:1010E0000A49884204D1816801F00701062903D02A
:1010F000016841F00101016000207047002C0140AF
:10110000003401400004004000080040000C004092
:10111000704770B50446006801694FF00005C94387
:10112000890715D4C168C943890711D4E91E016133
:1011300001202077206880698007204602D0FFF7D1
:10114000E7FF04E000F098F8204600F096F82577D5
:1011500020680169C943490717D4C168C9434907D1
:1011600013D46FF0040101610220207720688069A8
:1011700010F4407F204602D0FFF7CAFF04E000F0E1
:101180007BF8204600F079F8257720680169C9438B
:10119000090716D4C168C943090712D46FF00801C2
:1011A0000161042020772068C0698007204602D0B2
:1011B000FFF7AEFF04E000F05FF8204600F05DF8B6
:1011C000257720680169C943C90617D4C168C94396
:1011D000C90613D46FF01001016108202077206840
:1011E000C06910F4407F204602D0FFF791FF04E071
:1011F00000F042F8204600F040F8257720680169A9
:10120000C943C90708D1C168C943C90704D1891EA8
:101210000161204600F032F820680169C9430906DF
:1012200009D4C168C943090605D46FF08001016182
:101230002046FFF707FF20680169C943490609D422
:10124000C168C943490605D46FF0400101612046D9
:1012500000F01EF820680169C94389060BD4C168F3
:10126000C943890607D46FF0200101612046BDE81B
:101270007040FFF7E8BE70BD7047704700680349D3
:10128000884201D1FFF788BB704700000010004082
:101290007047704710B504460068406994F84110E3
:1012A000C0F3C010212911D180B12068143050E85A
:1012B000001F21F0800140E80012002AF5D1A06B48
:1012C00008B1FFF703F8204600F076FC206840697B
:1012D00094F84210C0F38010222911D180B1206807
:1012E000143050E8001F21F0400140E80012002AAD
:1012F000F5D1E06B08B1FEF7E9FF204600F035FCC0
:10130000002010BD70470000F8B501680446086869
:10131000CA684B6910F00F0F4FF0000559D003F069
:10132000010602F49077374365D0C10705D0D10597
:1013300003D5616C41F001016164410705D5D9070E
:1013400003D0616C41F002016164810705D5D907C2
:1013500003D0616C41F004016164010707D502F01C
:101360002001314303D0616C41F008016164616C7C
:1013700000293AD0800604D5900602D5204600F018
:101380003DFC20684069616CC0F38010090700D4FF
:1013900060B3204600F0E9FB20684069400621D593
:1013A0002068143050E8001F21F0400140E800128E
:1013B000002AF5D1E06BA8B16D494163E06BFEF7FF
:1013C000A9FF002811D0E06B416B01B0BDE8F040EF
:1013D000084783060FD593060DD52046BDE8F84093
:1013E00000F00CBC2046FFF78DFFF8BD2046FFF74C
:1013F00089FF6564F8BD266B2023012E7CD1C606CB
:101400007AD5D60678D508684868009048694FF0C4
:101410000206400640D5E16B086840680004000CF5
:10142000E8D0A28D8242E5D9E085886920282DD0B8
:1014300020680C3050E8001F21F4807140E8001251
:10144000002AF5D12068143050E8001F21F0010176
:1014500040E80012002AF5D12068143050E8001F3F
:1014600021F0400140E80012002AF5D184F8423012
:10147000256320680C3050E8001F21F0100140E87F
:101480000012002AF5D1E06BFEF720FF6663A08D05
:10149000E18D401A81B22AE0A08DE18D401A81B21F
:1014A000E08D0028A6D00029A4D022680C3252E892
:1014B000000F20F4907042E80007002FF5D120685B
:1014C000143050E8002F22F0010240E80027002FDE
:1014D000F5D184F84230256320680C3050E8002FA5
:1014E00022F0100240E80023002BF5D1666320466D
:1014F000FFF7CFFEF8BDFFE705062BD5150629D56A
:1015000094F841002128F5D1A068B0F5805F01D1A1
:101510002069B0B1206A411C2162216800784860CE
:10152000E08C401E0004000CE084E3D12068C16818
:1015300021F08001C1602068C16841F04001C160B4
:10154000D8E7206A0088C0F308004860206A801C41
:101550002062E5E74006CDD55006CBD5CA682046C7
:1015600022F04002CA6084F8413000F09DF8C1E7E3
:101570006D1A000870B5040004D094F841000025ED
:1015800010B106E0012070BD84F84050204600F004
:1015900023F8242084F841002068C16821F4005118
:1015A000C160204600F08CFB2068016921F4904165
:1015B00001612068416921F02A0141612068C16808
:1015C00041F40051C1606564202084F8410084F832
:1015D00042006563002070BD70B586B000250646E8
:1015E00000950195029503950068224988423ED1F5
:1015F0002149886940F480408861886900F480400E
:101600000490886940F00400886188691B4C00F0F0
:1016100004000490481500900220019003200390DC
:1016200069462046FFF7A8F82015CDE90005694670
:1016300020460295FFF7A0F8124C1148C4E90005B6
:101640008020C4E9025025616561A5612046E561FD
:10165000FFF71CF808B1FEF737FEF46300220521FE
:1016600025206662FFF730FA2520FFF71FFA06B043
:1016700070BD000000380140001002400008014029
:1016800058000240FC00002090F84230202B01D08E
:101690000220704721B11AB10023036300F06CBB34
:1016A00001207047704770477047FEE7094808B54A
:1016B000416941F0010141614069002200F00100EF
:1016C000009005210F20FFF7FFF9BDE808400F202B
:1016D000FFF7ECB90010024010B5044A002104489D
:1016E00000F062FC0349486110BD0000503700085B
:1016F000A51700080000002030B585B00024184868
:101700000094019402940394816941F01001816175
:10171000816901F010010491816941F00801816142
:10172000816901F008010491816941F0040181613E
:1017300080690C4D00F0040004900122032128462A
:10174000FFF71EF9032000900120CDE901040220DB
:10175000039069462846FFF70FF805B030BD00003A
:1017600000100240000C01400C4810B50A4901600D
:101770004FF4E1314160002181600C22C160C0E979
:1017800004128161C161FFF7F5FE002803D0BDE8B6
:101790001040FEF799BD10BD00380140B400002094
:1017A000FEE7FEE71CB501F0DBFA13480124CDE9A2
:1017B00000400023802211A1124801F0BBFD0E4819
:1017C0000023001DCDE9004080220FA1104801F048
:1017D000B1FD094800230830CDE9004080220DA169
:1017E0000E4801F0A7FD01F0EDFE002001F0EAF93E
:1017F000012000F083FBFBE7080000205461736BBD
:1018000041000000451900085461736B420000005C
:10181000D51900085461736B43000000211A0008B9
:1018200010B5502080F31188BFF34F8FBFF36F8F37
:1018300001F0ECFD18B104494FF080500860002021
:1018400080F3118810BD000004ED00E030B58FB0CA
:1018500028216846FEF7EFFC14210AA8FEF7EBFCEE
:1018600001210804CDE9001000240294022504910E
:10187000CDE907504FF4E01009906846FFF752FA9F
:1018800008B172B6FEE70F20CDE90A054FF480607B
:10189000CDE90C4002210AA80E94FFF747F9002871
:1018A00001D072B6FEE70FB030BD70470148FFF7B8
:1018B00030BC000040010020F0B502681C4B1D4DFB
:1018C0001D4E1E4F1E4C4FF0804C984209D0A04236
:1018D00007D0604505D0A84203D0B04201D0B8423D
:1018E00004D122F0700E4A6842EA0E02984209D0F2
:1018F000A04207D0604505D0A84203D0B04201D035
:10190000B84203D122F44075CA682A434D6922F0D7
:1019100080022A4302608A68C2620A688262984230
:1019200001D0A04201D10969016301214161F0BDEB
:10193000002C01400004004000080040000C004062
:101940000034014008B5154C154D00BF01F008FAF0
:1019500014A000F06FFA217891B10129F6D102218B
:101960002846FFF705F801F04BFD009012A000F0AB
:1019700061FA01F027FEA188684601F0DDF8E5E78D
:1019800001212846FEF7F4FF0EA000F053FA01F003
:1019900019FE608801F0AAF8D8E7000000000020D6
:1019A000000C01405461736B412069732072756EA5
:1019B0006E696E670D0A000061627344656C61793F
:1019C0000D0A00006E6F726D616C44656C61790D7B
:1019D0000A000000084D0024084909A0FEF736FC63
:1019E0000028F9D101F0BCF92C7008A000F022FA0F
:1019F00001F0E8FDF0E7000000000020A400002056
:101A00006E6F726D616C44656C6179005461736BCB
:101A100042206E6F726D616C44656C61790D0A00D5
:101A2000084D0124084909A0FEF710FC0028F9D14F
:101A300001F096F92C7008A000F0FCF901F0C2FD4D
:101A4000F0E7000000000020A40000206162734461
:101A5000656C6179000000005461736B4320616222
:101A60007344656C61790D0A0000000010B5406A8E
:101A70000021C185C184FFF745FC10BD70B5446AE3
:101A80002068406994F84110C0F3C0100025212956
:101A900004D118B1E584204600F08EF82068406932
:101AA00094F84210C0F38010222904D118B1E585C2
:101AB000204600F05AF8606C40F010006064204648
:101AC000FFF720FC70BD10B50146406A096809683F
:101AD0004FF0000289062ED4C28501680C3151E80E
:101AE000003F23F4807341E80034002CF5D10168F5
:101AF000143151E8003F23F0010341E80034002C89
:101B0000F5D10168143151E8003F23F0400341E86A
:101B10000034002CF5D1202180F84210016B0129FE
:101B200009D101680C3151E8003F23F0100341E86E
:101B30000034002CF5D14263016B012902D0FFF77C
:101B4000B1FD10BD818DFFF7A4FB10BD10B5406A3B
:101B500001214163016B012902D0FFF7A4FD10BDF3
:101B6000818D4908FFF795FB10BD01680C3151E8E4
:101B7000002F22F4907241E80023002BF5D1016878
:101B8000143151E8002F22F0010241E80023002B1C
:101B9000F5D1016B012909D101680C3151E8002F01
:101BA00022F0100241E80023002BF5D1202180F81B
:101BB000421000210163704701680C3151E8002F89
:101BC00022F0C00241E80023002BF5D1202180F84B
:101BD0004110704710B50848FFF75CFB06480F211D
:101BE0001038FEF728FB04490F22BDE810401039D9
:101BF0000148FFF749BD0000B400002008B590F887
:101C00004210222901D0022008BD82684FF480537F
:101C10009A4201D1016921B1816A9A421BD04AB12D
:101C20000AE00268816A5268C2F308020A80816A87
:101C3000891C08E0026972B10268526802F07F02F2
:101C40000A70816A491C8162C18D491E0904090C10
:101C5000C18503D01BE002685268F1E70168CA68D9
:101C600022F02002CA600168CA6822F48072CA6049
:101C700001684A6922F001024A61202180F842107D
:101C800000214163026B012A03D0FFF70BFD002006
:101C900008BD016301680C3151E8002F22F01002E9
:101CA00041E80023002BF5D101680A68D20602D56D
:101CB0000A6849680091818DFFF7EBFAE7E70000B9
:101CC00070B5044600680169E26821F4405111438F
:101CD00001612169A0680843616908432168CA68F5
:101CE00041F20C639A430243CA6020684169A269C9
:101CF00021F44071114341611E492068884202D19C
:101D0000FEF7DAFF01E0FEF7C7FF00EBC00101EBD1
:101D10000012606864218000B2FBF0F3B3FBF1F3C2
:101D20006FF018067343B2FBF0F5B2FBF0F605EB6B
:101D30008305322303EB0515B5FBF1F5B6FBF1F690
:101D400005F0F00505EB0615B2FBF0F6B2FBF0F07E
:101D5000B0FBF1F06FF01802504306EB800003EB8C
:101D60000010B0FBF1F0216800F00F0028448860FB
:101D700070BD00000038014038B58162044682859C
:101D8000002013466064222284F84220E56B1B4A3F
:101D9000AA62E56B1A4AEA62E56B1A4A2A63E26BA9
:101DA00050630A462168E06B091DFEF7ADFC206810
:101DB000016840680090206948B120680C3050E804
:101DC000001F41F4807140E80012002AF5D120681C
:101DD000143050E8001F41F0010140E80012002AD1
:101DE000F5D12068143050E8001F41F0400140E870
:101DF0000012002AF5D1002038BD0000C71A0008E3
:101E00004D1B00087D1A000808B50848FFF77CFA4A
:101E1000064800680168C943C90606D401684068DD
:101E20000090BDE80840FFF7D5BE08BDB400002013
:101E3000FEE70000014A024900F023B8A51E000891
:101E4000A00000200907090E002804DB00F1E020B3
:101E500080F80014704700F00F0000F1E02080F8D7
:101E6000141D704702E008C8121F08C1002AFAD1E9
:101E700070477047002001E001C1121F002AFBD10A
:101E800070472DE9F04116460F460446002503E051
:101E90003946B047641C6D1C20780028F8D12846CC
:101EA000BDE8F08104490A685206FCD5024AC1B275
:101EB000121D11607047000000380140FEF774FDEC
:101EC000FFF7C4FCFFF718FCFFF7F0FBFFF74CFC33
:101ED0000F2208490848FFF7D7FB07480068C16888
:101EE00041F01001C16000F023F8FFF7F5FB00F0AE
:101EF0003BF8FEE7A4000020B400002010B5EFF38B
:101F0000058149B9EFF3108131B9084909680229FF
:101F100005D1EFF3118111B16FF0050403E0002446
:101F200008B100F0E3FD204610BD0000780000205D
:101F3000EFF3058058B9EFF3108040B909490868FC
:101F4000022801D030B109E0EFF3118030B16FF019
:101F50000500704701200860002070474FF0FF30F7
:101F6000704700007800002010B5EFF3058060B9DD
:101F7000EFF3108048B90B490868022802D0012805
:101F800006D00BE0EFF3118040B16FF0050010BDFB
:101F90000220086000F0A0FE002010BD4FF0FF30CE
:101FA00010BD000078000020F0B585B04FEA0103B5
:101FB0004FF00004EFF305810394A1BBEFF3108110
:101FC00089BB21490968022902D1EFF3118151BB74
:101FD00048B3802618218DF8104004AD42B317682D
:101FE00007B13D4697691FB139467F1E382F02D28F
:101FF0001779FF0702D0002005B0F0BD576907B17F
:10200000BE08D2F808C0BCF1000F0DD0D4685C2C1B
:1020100018D312693AB137B18DE806103246294615
:1020200001F0B5F903900DE0D7685FB912694AB9BC
:1020300003AACDE90012B2B2294601F07BF90128CA
:1020400000D003940398D7E7780000202DE9F041F1
:10205000134C0F46054666692068001D00F016FC0B
:10206000681C07D137B12168BDE8F0410D48091D52
:1020700000F05CBC20683544B5424560216805D25B
:10208000A068BDE8F041091D00F038BC6068091D7A
:1020900000F034FC206B854200D22563BDE8F0815E
:1020A00028000020780600202DE9F041054600F0C8
:1020B00049FC2D4C2069401C206120682B4F10B139
:1020C000E06930B32BE025602069012827D1002684
:1020D00006EB860007EB800000F002FC761C382E31
:1020E000F6D3234800F0FCFB2148143000F0F8FB45
:1020F0001F48283000F0F4FB1D483C3000F0F0FB96
:102100001B48503000F0ECFB194860601430A060B0
:1021100005E02068E96AC06A884200D82560E06A64
:10212000401CE0626864E86AA169884200D9A06145
:1021300000EB800007EB8000291D00F0F7FB00F0AA
:1021400021FCE06900280CD02068E96AC06A884256
:1021500007D208494FF080500860BFF34F8FBFF39C
:102160006F8FBDE8F081000028000020C80100202A
:102170002806002004ED00E038B500F0E3FB104C29
:10218000A068C8B90F4800F0ABFB0E48143000F04F
:10219000A7FB0C482060143060600A4B00202833F5
:1021A000009003F1500210210A2000F067FEA060A9
:1021B00010B105A100F064FCBDE8384000F0E2BBBE
:1021C000640000208C060020546D72510000000055
:1021D00030B4026C0B46002A0BD0C1681144C160B8
:1021E0004468A14201D30168C16030BC1846FEF7C3
:1021F00009B830BC70472DE9F041856B174604469D
:102200000026026C82B1C7B1E068FDF7FBFFE16810
:10221000206C091AE1602268914202D26168081AB2
:10222000E060022F16D017E02068A8B9606801F0BE
:1022300051F90646002060600EE0A068FDF7E2FF5D
:10224000216CA0680844A0606168884204D32068BB
:10225000A06001E005B16D1E6D1CA5633046BDE8B0
:10226000F08110B5044690F8590058B101280CD0FF
:1022700002280FD0502080F31188BFF34F8FBFF397
:102280006F8FFEE7206B00F091FB2046BDE8104009
:1022900000F08CBB10BD000010484FF440614207B5
:1022A00006D0C01D0D4920F00700411AC1F540615C
:1022B0000B4A00230144C2E900030839103A21F017
:1022C000070111604B600B600B1AC0E900139360AB
:1022D0004FF000405360D060704700005C0E00205B
:1022E0008C000020144E154CA6F29C474FF08058ED
:1022F000DFF84C9012E000BF00F024FBF068C568E6
:10230000281D00F0C3FA2069401E2061E068401ECD
:10231000E06000F037FB2846FFF7A3FFE0680028E5
:10232000EAD138680128F9D9C9F80080BFF34F8F86
:10233000BFF36F8FF2E70000640600202800002042
:1023400004ED00E070B51D46049C51B1C4F80020B6
:10235000C4E90F010121204600F0C4FD84F84C506F
:1023600070BD2460F4E72DE9F0470E46DDE90984ED
:102370001746824691009946089DA522206BFDF7DD
:1023800053FF6FF00301206B01EB8701084420F03D
:102390000707780707D0502080F31188BFF34F8FCD
:1023A000BFF36F8FFEE72218315C82F83410315C86
:1023B00011B1401C1028F6D3002684F84360382D54
:1023C00000D33725E562C4E91356201D00F093FAC7
:1023D00004F1180000F08FFA2461C5F1380064623E
:1023E000A061666584F858604A465146384600F058
:1023F0003BFA2060B8F1000F01D0C8F80040BDE8FA
:10240000F087000030B5114900E011460A688242A9
:10241000FBD34B685C18844203D140681844486081
:10242000084643681C18944209D1084C103C2468A3
:10243000A24209D052681A4442600A6812680260D7
:10244000814200D0086030BD0460F9E78C000020B4
:1024500070B5002441600B4D0061914206D8D11A3D
:102460008269914206D2011D686807E09A4203D250
:10247000994201D3012403E0011D286800F03EFACF
:10248000204670BD6400002010B5044600F05AFAE2
:10249000A06B28B15FF0000400F074FA204610BD74
:1024A0000124F9E730B589B0304D55E00498002893
:1024B00006DADDE90601059A9047049800284BDB0F
:1024C000069C606910B1201D00F0E0F902A800F040
:1024D000B9F8024604980A283ED2DFE800F0050564
:1024E000053D263705053D260598A16903460144AB
:1024F0002046FFF7ADFF00B3616A20468847E069D8
:10250000012829D1002000900598A16900234218D4
:102510001946204601F0E8F878B9502080F3118878
:10252000BFF34F8FBFF36F8FFEE70598A06128B10F
:10253000811813462046FFF78BFF0DE0502080F3F3
:102540001188BFF34F8FBFF36F8FFEE794F82C0015
:1025500010B9204600F02AFA002204A9A86800F069
:1025600013FE0028A2D109B030BD00006400002095
:102570002DE9FC410F46054600F0F2FB01A800F0F2
:1025800061F80446019818B101F01CF8BDE8FC811F
:10259000224EAFB170680068A8B30027291B3A46E5
:1025A000B06800F081FA01F00DF80028EED11C4966
:1025B0004FF080500860BFF34F8FBFF36F8FE5E798
:1025C000A542EBD800F0FEFF30682746C068C4681B
:1025D000201D00F05BF9E069012810D1A0692B46AD
:1025E00041193A462046FFF733FF40B10020034629
:1025F000014600902A46204601F076F820B1616A33
:1026000020468847C2E707E0502080F31188BFF3D7
:102610004F8FBFF36F8FFEE70127BFE764000020F5
:1026200004ED00E006484168096829B14168C968BD
:10263000C9684968016370474FF0FF31FAE700004D
:102640002800002070B5054600F0DAFE064E04466C
:102650003069844203D200F009F8012000E0002034
:1026600028602046346170BD64000020F8B5194D23
:102670001FE0C068C4680668201D00F007F9616AA1
:1026800020468847E069012813D1A0693044B04250
:1026900006D924616060211D286800F02FF908E048
:1026A00000200346014600903246204601F01CF807
:1026B00038B1286801680029DBD16968C5E90010D4
:1026C000F8BD502080F31188BFF34F8FBFF36F8F99
:1026D000FEE700006400002008484068401C4FF0FE
:1026E000500080F3118804D0BFF34F8FBFF36F8F7A
:1026F000FEE7BFF34F8FBFF36F8FFEE7940000201C
:10270000074C2068016841B1C0680021D0F8000082
:10271000FFF72EFFFFF7C6FEF3E701210020F7E7E2
:10272000640000202DE9F041044600F00BF994F913
:10273000455004F1240609E0606A48B1304600F0D3
:1027400009FF08B100F08EFA6D1E6DB2002DF3DCAA
:102750004FF0FF3684F8456000F014F900F0F2F80D
:1027600094F9445004F1100709E0206948B1384653
:1027700000F0F0FE08B100F075FA6D1E6DB2002D8C
:10278000F3DC84F84460BDE8F04100F0FBB80000E1
:102790002DE9F0410546002700F0E2FA314E30689D
:1027A00008B9FFF779FDF06805424BD1C5B308358C
:1027B00068070ED005F00700C0F10800054468075F
:1027C00007D0502080F31188BFF34F8FBFF36F8F76
:1027D000FEE72DB37068854234D822481030014698
:1027E0000C6801E020460C466168A94202D22168CB
:1027F0000029F7D131688C4224D007682168016034
:1028000060680837411B10290FD96019420708D0AA
:10281000502080F31188BFF34F8FBFF36F8FFEE717
:1028200010E041606560FFF7EDFD61687068401A77
:102830007060B268904200D2B060F068014300203E
:10284000C4E9000100F0BEFE780707D0502080F3F5
:102850001188BFF34F8FBFF36F8FFEE73846BDE897
:10286000F08100007C00002010B5031F4FF0807441
:102870001C601B1F21F001011960191F024B0B6026
:10288000143940380A6010BDD9260008D0E9013259
:1028900001699A60D0E901235A604A68824201D1F5
:1028A00082684A60002202610868401E0860086869
:1028B00070470000034B036003F15C000860802058
:1028C00010607047A4070020044B036003F15C0014
:1028D00008604FF48070106070470000000A00200C
:1028E00000F108014FF0FF32C0E90112C16001613F
:1028F00000210160704700210161704730B50B680D
:102900005A1C02D000F1080202E0026904E02246EB
:10291000546825689D42FAD953684B6099608A6073
:10292000516008610168491C016030BD42684A601D
:1029300093688B6093685960916008610168491CD5
:1029400001607047502080F31188BFF34F8FBFF3B1
:102950006F8F0A494868401C486001280CD108481C
:10296000006810F0FF0F07D0502080F31188BFF3EC
:102970004F8FBFF36F8FFEE7704700009400002079
:1029800004ED00E00849486828B1401E486001D1C4
:1029900080F311887047502080F31188BFF34F8F68
:1029A000BFF36F8FFEE700009400002070B5002891
:1029B00027D0144DA0F108046168E868014207D1EE
:1029C000502080F31188BFF34F8FBFF36F8FFEE766
:1029D00022683AB1502080F31188BFF34F8FBFF3C4
:1029E0006F8FFEE78143616000F0BAF96068696843
:1029F000084468602046FFF705FDBDE8704000F020
:102A0000E1BD70BD7C0000204FF0E020002101619D
:102A1000816105494FF47A720968B1FBF2F1491EF0
:102A200041610721016170472400002010B5FDF7C6
:102A3000D3FB114910280ED300F1E02090F8F003E9
:102A40000A78904207D2502080F31188BFF34F8F4D
:102A5000BFF36F8FFEE709480068896800F4E06003
:102A6000884207D9502080F31188BFF34F8FBFF3FE
:102A70006F8FFEE710BD0000940000200CED00E019
:102A800010B5084B002200BF53F832401CB1521C55
:102A9000082AF9D310BD43F8321003EBC201486095
:102AA00010BD00008801002070B515460E46044692
:102AB000FFF748FF94F944100020491C01D184F825
:102AC000440094F94510491C01D184F84500FFF7F2
:102AD00059FFA06B28B92A46314604F1240000F0C2
:102AE000DFF82046BDE87040FFF71CBE10B50200BD
:102AF00014D00F48806B38B1502080F31188BFF399
:102B00004F8FBFF36F8FFEE700F02AF900211046C8
:102B1000FFF79CFA00F056FD002807D105494FF059
:102B200080500860BFF34F8FBFF36F8F10BD000060
:102B30002800002004ED00E070B50D4604000BD025
:102B400095B11E4A906BB8B1502080F31188BFF345
:102B50004F8FBFF36F8FFEE7502080F31188BFF3D4
:102B60004F8FBFF36F8FFEE7502080F31188BFF3C4
:102B70004F8FBFF36F8FFEE700F0F2F852692368C2
:102B80005919934204D98B420AD9914202D807E0DD
:102B90008B42FAD9881A21600021FFF757FA00E02A
:102BA000216000F00FFD002807D105494FF080504B
:102BB0000860BFF34F8FBFF36F8F70BD28000020F8
:102BC00004ED00E070B50546FFF7BCFE1E4C05B9EC
:102BD0002568281DFFF75AFEA86A18B105F11800EC
:102BE000FFF754FEE06A401CE0622068854207D18E
:102BF000291D1648FFF79AFEE068401CE06007E0D8
:102C00002069401E20612846FFF72BFBFFF70AFDD5
:102C1000FFF7B8FEE069002814D02068854211D182
:102C2000A06B38B1502080F31188BFF34F8FBFF3F2
:102C30006F8FFEE706494FF080500860BFF34F8F5B
:102C4000BFF36F8F70BD00002800002064060020D5
:102C500004ED00E002498A6A0260496941607047F8
:102C60002800002001490120486270472800002008
:102C700010B50C4650B1094909681831FFF73EFEFE
:102C80002046BDE810400121FFF7E0B9502080F355
:102C90001188BFF34F8FBFF36F8FFEE7280000202E
:102CA00070B514460D4668B10A4909681831FFF736
:102CB0003DFE0CB14FF0FF3521462846BDE870407F
:102CC000FFF7C4B9502080F31188BFF34F8FBFF3D3
:102CD0006F8FFEE72800002030B587B000240394F2
:102CE00005AA04A903A80494FFF7E4FDDDE90301A4
:102CF0000094CDE90110002315A11748059A00F0B2
:102D000046FB164D002868631FD000F0BDFC01286B
:102D100009D0401C19D1502080F31188BFF34F8F88
:102D2000BFF36F8FFEE7502080F31188BFF34F8F02
:102D3000BFF36F8F4FF0FF3028630120E8616C61B3
:102D400007B0BDE8304000F045B807B030BD000026
:102D500049444C4500000000E522000828000020FE
:102D60000248816B491C81637047000028000020E5
:102D7000164810B5816B11B10121416210BD0021CF
:102D800041628169124A01E0B9B1491E01EB810338
:102D900052F82330002BF7D001EB810302EB8302C2
:102DA00002F1080453685B685360A34201D15B6879
:102DB0005360DA680260816110BD502080F3118891
:102DC000BFF34F8FBFF36F8FFEE700002800002096
:102DD000C80100201CB5264908780190FF20087022
:102DE00008788DF800009DF800009DF8002000F0A4
:102DF000F000904207D0502080F31188BFF34F8F2E
:102E0000BFF36F8FFEE79DF800001A4B00F05000F3
:102E100018700720986005E09DF8002052008DF89A
:102E20000020401E9DF800201206F5D4986003286B
:102E300007D0502080F31188BFF34F8FBFF36F8FFF
:102E4000FEE74FF440709860019808700A480168E6
:102E500041F470010160016841F070410160FFF7C9
:102E6000D3FD00205860FDF781F900201CBD000053
:102E700000E400E09400002020ED00E038B5049D5F
:102E800018B153B1CAB181B120E0502080F311884C
:102E9000BFF34F8FBFF36F8FFEE7502080F3118891
:102EA000BFF34F8FBFF36F8FFEE7502080F3118881
:102EB000BFF34F8FBFF36F8FFEE739B1502080F320
:102EC0001188BFF34F8FBFF36F8FFEE750241C466E
:102ED000012384F846302B460094FFF733FA20464E
:102EE00038BD000070B50D46040025D0FFF72AFD5F
:102EF000D4E90F20216802FB001161600021A16369
:102F00002168A1600A46D4E90F01401E00FB01219F
:102F1000E16021464FF0FF3001F8440F487004F1A2
:102F200010008DB1FFF7DCFC04F12400FFF7D8FCA2
:102F3000FFF728FD012070BD502080F31188BFF3FA
:102F40004F8FBFF36F8FFEE721690029F0D000F0AB
:102F500001FB0028ECD004494FF080500860BFF31B
:102F60004F8FBFF36F8FE3E704ED00E02DE9FF47DC
:102F700082B01D468A464FF00008040003D0BAF123
:102F8000000F08D011E0502080F31188BFF34F8F5D
:102F9000BFF36F8FFEE7206C38B1502080F31188AB
:102FA000BFF34F8FBFF36F8FFEE7022D0AD1E06BA7
:102FB000012807D0502080F31188BFF34F8FBFF353
:102FC0006F8FFEE700F00EFA3F4F4FF000094FF011
:102FD000805648B9049838B1502080F31188BFF367
:102FE0004F8FBFF36F8FFEE7FFF7ACFCA06BE16B79
:102FF000884207D3022D05D00498D0B1B8F1000F54
:103000001AD01EE02A4651462046FFF7F4F8616ABE
:1030100019B104F1240000F09DFA20B13E60BFF325
:103020004F8FBFF36F8FFFF7ADFC012006B0BDE8F7
:10303000F087FFF7A7FC22E06846FFF70BFE4FF092
:103040000108FFF79FFCFFF78BFEFFF77BFC94F96D
:103050004400401C01D184F8449094F94500401C80
:1030600001D184F84590FFF78DFC04A9684600F073
:1030700027F930B12046FFF755FB00F0A3FA0020F6
:10308000D4E7FFF75FFCA06BE16B884213D1FFF739
:1030900079FC04F110000499FFF7EAFD2046FFF7E0
:1030A00041FB00F08FFA00289ED13E60BFF34F8FA6
:1030B000BFF36F8F98E7FFF765FC2046FFF732FB01
:1030C00000F080FA90E7000004ED00E02DE9F04701
:1030D0001F4690468946040003D0B9F1000F08D07E
:1030E00011E0502080F31188BFF34F8FBFF36F8F33
:1030F000FEE7206C38B1502080F31188BFF34F8F6A
:10310000BFF36F8FFEE7022F0AD1E06B012807D0D3
:10311000502080F31188BFF34F8FBFF36F8FFEE70E
:10312000FFF784FC5020EFF3118680F31188BFF382
:103130004F8FBFF36F8FA06BE16B884206D3022FD6
:1031400004D0002086F31188BDE8F08794F945503B
:103150003A4649462046FFF74EF8681C04D06D1CDD
:1031600084F845500120EDE7606A0028FAD004F1A8
:10317000240000F0EFF90028F4D0B8F1000FF1D0EE
:103180000121C8F80010EDE72DE9F747002683B0CC
:103190008A46040003D0BAF1000F08D011E0502095
:1031A00080F31188BFF34F8FBFF36F8FFEE7206C62
:1031B00038B1502080F31188BFF34F8FBFF36F8F6A
:1031C000FEE700F00FF9DFF8F4804FF000094FF050
:1031D000805748B9059838B1502080F31188BFF363
:1031E0004F8FBFF36F8FFEE7FFF7ACFBA56BC5B149
:1031F00051462046FEF7ECFF6D1EA563206950B1D5
:1032000004F1100000F0A6F928B1C8F80070BFF36F
:103210004F8FBFF36F8FFFF7B5FB012006B0BDE8FE
:10322000F087059808B11EB106E0FFF7ABFB27E079
:103230006846FFF70FFD0126FFF7A4FBFFF790FD9F
:10324000FFF780FB94F94400401C01D184F84490BE
:1032500094F94500401C01D184F84590FFF792FB9A
:1032600005A9684600F02CF8002820460AD0FFF790
:1032700059FA00F0A7F92046FFF706F90028B3D065
:103280000020CBE7FFF700F990B104F12400059985
:10329000FFF7EEFC2046FFF745FA00F093F900280F
:1032A000A2D1C8F80070BFF34F8FBFF36F8F9BE7B9
:1032B0002046FFF737FA00F085F995E704ED00E0C6
:1032C0002DE9F0410C46050011D0C4B1FFF73AFBDF
:1032D000174B5A696E682068911B471C17D02F68DE
:1032E0009B6A9F4219D0964217D8012410E05020C3
:1032F00080F31188BFF34F8FBFF36F8FFEE750202D
:1033000080F31188BFF34F8FBFF36F8FFEE7002468
:10331000FFF738FB2046BDE8F081884205D9401A06
:1033200020602846FFF796FCF1E700202060DCE7EC
:10333000280000202DE9FF5F8346DDE90E879946CE
:1033400016468A469000FFF723FA05001CD05C2041
:10335000FFF71EFA040014D00020256384F85900FA
:10336000CDE90240CDE900874B46324651465846EA
:10337000FEF7F9FF2046FEF797FE012004B0BDE8F6
:10338000F09F2846FFF712FB4FF0FF30F6E7F0B54D
:1033900085B0DDE90B640A9DA6B1DCB15C2700971E
:1033A0002663022684F85960002604AFCDE9024660
:1033B000CDE90057FEF7D7FF2046FEF775FE0498CB
:1033C00005B0F0BD502080F31188BFF34F8FBFF3DD
:1033D0006F8FFEE7502080F31188BFF34F8FBFF34C
:1033E0006F8FFEE70548C16919B1806B18B10020E5
:1033F000704701207047022070470000280000201D
:103400000148406970470000280000202DE9F04184
:103410002E4C0027A06B40B1206A401C2062606ADD
:1034200000B101273846BDE8F0816669761C666107
:1034300013D16068006838B1502080F31188BFF361
:103440004F8FBFF36F8FFEE76068A1686160A06077
:10345000A06A401CA062FFF7E5F8206BDFF87080DF
:10346000864209D36068006880B16068C068C5683A
:10347000686886420DD220632068C06A00EB800134
:1034800058F821000128CAD90127C8E74FF0FF30BA
:10349000F1E7281DFFF7FAF9A86A18B105F118003D
:1034A000FFF7F4F9E86AA169884200D9A06100EB4E
:1034B000800108EB8100291DFFF738FAE86A2168CE
:1034C000C96A8842CED30127CCE70000280000203B
:1034D000C801002070B504004FF0000133D01B4D2F
:1034E0002868844207D0502080F31188BFF34F8FA3
:1034F000BFF36F8FFEE7206D38B1401E2065E36C8F
:10350000E26A9A421FD040B11DE0502080F311883A
:10351000BFF34F8FBFF36F8FFEE7201DFFF7B6F9A4
:10352000E06CE062C0F13800A061E06AA9698842FD
:1035300000D9A861064900EB800001EB8000211D45
:10354000FFF7F4F90121084670BD000028000020B3
:10355000C801002070B5C068C46854B104F11800F7
:103560000646FFF793F9144DA86B50B13146134846
:1035700015E0502080F31188BFF34F8FBFF36F8F9A
:10358000FEE7201DFFF782F9E06AA969884200D9A9
:10359000A8610B4900EB800001EB8000211DFFF7C3
:1035A000C5F9E06A2968C96A884202D901206862BF
:1035B00070BD002070BD00002800002050060020D3
:1035C000C80100202DE9F0472C4D00242746A86BA8
:1035D00038B1FFF7B7F9A86B401EA863A86B40B1DC
:1035E00046E0502080F31188BFF34F8FBFF36F8FF9
:1035F000FEE72969224E0120D1B3A6F591698046E4
:103600003068E0B1F068C46804F11800FFF73EF9D3
:10361000201DFFF73BF9E06AA969884200D9A8613B
:1036200000EB800109EB8100211DFFF77FF9E06AC3
:103630002968C96A8842E3D3C5F82480E0E70CB161
:10364000FEF7F0FF2C6A4CB14FEA0806FFF7DEFEEA
:1036500000B16E62641EF9D100202862686A38B138
:103660000849012738070860BFF34F8FBFF36F8FFA
:10367000FFF788F93846BDE8F087000028000020F1
:103680005006002004ED00E010B586B0FEF774FD92
:10369000114CA068B8B100200390049005AA04A9B9
:1036A00003A8FFF711F9DDE9032102208DE80700E7
:1036B00000230AA10B48059AFFF769FEE06010B1EC
:1036C00006B0012010BD502080F31188BFF34F8F4A
:1036D000BFF36F8FFEE7000064000020546D72207E
:1036E00053766300012700082DE9FF411E4613466B
:1036F00002000A9D4FF0000016D0144CA768002F5E
:103700000FD0CDE900130292062917DAFFF76AFEFF
:1037100002284FF000030FD000226946A068FFF78F
:1037200025FC04B0BDE8F081502080F31188BFF380
:103730004F8FBFF36F8FFEE72A46EEE70023324636
:1037400069463846FFF7C2FCEBE700006400002042
:10375000A03700080000000000000000000000008A
:10376000000000000002000018000000000000003F
:1037700000000000010202030405060708090A0B05
:103780000C0D0E0F101000000000000000000102E0
:1037900003040607080900000000010203040000FA
:1037A00064656661756C745461736B00CC37000896
:1037B00000000020A4000000641E0008703800080B
:1037C000A4000020BC1D0000741E00080000E803D7
:1037D000D007000000000000000000000000000012
:1037E00000000000010000001000000000000000C8
:1037F0000024F400000000000000000000000000B1
:1038000000000000000000000000000000000000B8
:1038100000000000000000000000000000000000A8
:103820000000000000000000000000000000000098
:103830000000000000000000000000000000000088
:103840000000000000000000000000000000000078
:103850000000000000000000000000000000000068
:1038600000000000AAAAAAAA0000000000000000B0
:0400000508000131BD
:00000001FF
